:040000008031132810
:100008007E1480318B1D09280A2811280B1C0D2805
:100018000E28112885319D2580317E1009008031F8
:100028001528F7012000A001A101A201A301A40144
:10003800A501A601A701A801A901AA01AB017E108B
:100048002000803127288531932580313A30F1000E
:100058000530F2008531AC2580318B170B17200055
:10006800B301B401B701AC01AD01B6012B08031906
:100078003E283F283A288B132008031D442845288A
:10008800352D2A03031D49284A28352DAF01B00113
:10009800B501AE010130B1000030B2003208803A3B
:1000A800F30080307302031D5B2809303102031C02
:1000B8005E285F286028AF2820003108203E86008F
:1000C80087010108F3003108FF3E890A6C28F335DF
:1000D800890B6B287308F4007408AF040130B1076A
:1000E8000030B23D5228B301B30AB001B00ACF289C
:1000F800B401B40AB001B00ACF283308031985281F
:1001080086288828B701CF28B701B70ACF2833082F
:1001180003198F2890289228AC01CF28AC01AC0A8B
:10012800CF283308031999289A289C28AD01CF288D
:10013800AD01AD0ACF283308031DA328A428CF2872
:1001480036080319A828AA280130AB280030F30084
:100158007308B600CF2820002F08F300F4017408B4
:10016800003A0319B828CF287308113A03199528BB
:10017800033A03198128063A03198B284C3A0319C4
:100188009F28013A03198128B93A03197C28103AA3
:1001980003197728CF283308031DD328D428142D12
:1001A800AE01AE0A622C3708031DDB28DC28E128E3
:1001B80036080319E028E128E6284130F3007308DF
:1001C800B500142D6130F3007308B500142D3708FD
:1001D800031DEF28F028F52836080319F428F52818
:1001E800FA284230F3007308B500142D6230F3008A
:1001F8007308B500142D3708031D0329042909299C
:1002080036080319082909290E294330F300730811
:10021800B500142D6330F3007308B500142D3708AA
:10022800031D172918291D29360803191C291D29FA
:1002380022294430F3007308B500142D6430F3000C
:100248007308B500142D3708031D2B292C293129D3
:10025800360803193029312936294530F300730847
:10026800B500142D6530F3007308B500142D370858
:10027800031D3F29402945293608031944294529E2
:100288004A294630F3007308B500142D6630F30090
:100298007308B500142D3708031D5329542959290B
:1002A80036080319582959295E294730F30073087D
:1002B800B500142D6730F3007308B500142D370806
:1002C800031D672968296D29360803196C296D29CA
:1002D80072294830F3007308B500142D6830F30014
:1002E8007308B500142D3708031D7B297C29812943
:1002F800360803198029812986294930F3007308B3
:10030800B500142D6930F3007308B500142D3708B3
:10031800031D8F29902995293608031994299529B1
:100328009A294A30F3007308B500142D6A30F30097
:100338007308B500142D3708031DA329A429A9297A
:1003480036080319A829A929AE294B30F3007308E8
:10035800B500142D6B30F3007308B500142D370861
:10036800031DB729B829BD2936080319BC29BD2999
:10037800C2294C30F3007308B500142D6C30F3001B
:100388007308B500142D3708031DCB29CC29D129B2
:1003980036080319D029D129D6294D30F30073081E
:1003A800B500142D6D30F3007308B500142D37080F
:1003B800031DDF29E029E52936080319E429E52981
:1003C800EA294E30F3007308B500142D6E30F3009F
:1003D8007308B500142D3708031DF329F429F929EA
:1003E80036080319F829F929FE294F30F300730854
:1003F800B500142D6F30F3007308B500142D3708BD
:10040800031D072A082A0D2A360803190C2A0D2A63
:10041800122A5030F3007308B500142D7030F30021
:100428007308B500142D3708031D1B2A1C2A212A1E
:1004380036080319202A212A262A5130F300730886
:10044800B500142D7130F3007308B500142D37086A
:10045800031D2F2A302A352A36080319342A352A4B
:100468003A2A5230F3007308B500142D7230F300A5
:100478007308B500142D3708031D432A442A492A56
:1004880036080319482A492A4E2A5330F3007308BC
:10049800B500142D7330F3007308B500142D370818
:1004A800031D572A582A5D2A360803195C2A5D2A33
:1004B800622A5430F3007308B500142D7430F30029
:1004C8007308B500142D3708031D6B2A6C2A712A8E
:1004D80036080319702A712A762A5530F3007308F2
:1004E800B500142D7530F3007308B500142D3708C6
:1004F800031D7F2A802A852A36080319842A852A1B
:100508008A2A5630F3007308B500142D7630F300AC
:100518007308B500142D3708031D932A942A992AC5
:1005280036080319982A992A9E2A5730F300730827
:10053800B500142D7730F3007308B500142D370873
:10054800031DA72AA82AAD2A36080319AC2AAD2A02
:10055800B22A5830F3007308B500142D7830F30030
:100568007308B500142D3708031DBB2ABC2AC12AFD
:1005780036080319C02AC12AC62A5930F30073085D
:10058800B500142D7930F3007308B500142D370821
:10059800031DCF2AD02AD52A36080319D42AD52AEA
:1005A800DA2A5A30F3007308B500142D7A30F300B4
:1005B8007308B500142D37080319E32AE42AE92A39
:1005C8002930F3007308B500142D3030F300730898
:1005D800B500142D37080319F22AF32AF82A213016
:1005E800F3007308B500142D3130F3007308B5001B
:1005F800142D37080319012B022B072B4030F30069
:100608007308B500142D3230F3007308B500142DAB
:1006180037080319102B112B162B2330F3007308FE
:10062800B500142D3330F3007308B500142D3708C6
:1006380003191F2B202B252B2430F3007308B5003A
:10064800142D3430F3007308B500142D370803193E
:100658002E2B2F2B342B2530F3007308B500142DC7
:100668003530F3007308B500142D370803193D2BF6
:100678003E2B432B5E30F3007308B500142D363043
:10068800F3007308B500142D370803194C2B4D2BB4
:10069800522B2630F3007308B500142D3730F300C1
:1006A8007308B500142D370803195B2B5C2B612BDD
:1006B8002A30F3007308B500142D3830F30073089E
:1006C800B500142D370803196A2B6B2B702B2830B3
:1006D800F3007308B500142D3930F3007308B50022
:1006E800142D37080319792B7A2B7F2B3F30F30011
:1006F8007308B500142D2F30F3007308B500142DBE
:1007080037080319882B892B8E2B7D30F30073084B
:10071800B500142D5D30F3007308B500142D3708AB
:100728000319972B982B9D2B7B30F3007308B5008A
:10073800142D5B30F3007308B500142D3708031926
:10074800A62BA72BAC2B7C30F3007308B500142D17
:100758005C30F3007308B500142D37080319B52B66
:10076800B62BBB2B3C30F3007308B500142D2C308E
:10077800F3007308B500142D37080319C42BC52BD3
:10078800CA2B3E30F3007308B500142D2E30F30049
:100798007308B500142D37080319D32BD42BD92B84
:1007A8005F30F3007308B500142D2D30F300730883
:1007B800B500142D37080319E22BE32BE82B2B3057
:1007C800F3007308B500142D3D30F3007308B5002D
:1007D800142D37080319F12BF22BF72B7E30F30079
:1007E8007308B500142D6030F3007308B500142D9C
:1007F80037080319002C012C062C3A30F300730833
:10080800B500142D3B30F3007308B500142D3708DC
:1008180003190F2C102C152C2230F3007308B50087
:10082800142D2730F3007308B500142D2030F30081
:100838007308B500142D0D30F3007308B500142D9E
:100848000830F3007308B500142D340803192D2C53
:100858002E2C142D7F30F3007308B500142D3408A6
:100868000319372C382C142D8030F3007308B50089
:10087800142D34080319412C422C142D8230F30016
:100888007308B500142D340803194B2C4C2C142D67
:100898008130F3007308B500142D34080319552C62
:1008A800562C142D8330F3007308B500142D1B301B
:1008B800F3007308B500142DAE01142D2F08F300B2
:1008C800F4017408003A03196A2C602C73080E3A74
:1008D8000319ED2B1B3A0319172A033A0319EE2AB9
:1008E8000C3A0319CB2A013A03193F2A073A03198C
:1008F800D728013A03198F2A033A0319FD2A3F3AE8
:100908000319FF28033A0319A32A013A03191329E3
:10091800073A03192729013A03191B2B033A03192C
:100928000C2B0F3A03191A2C033A03197B2A013AA4
:1009380003193B29073A0319532A013A03192B2AA9
:10094800033A03192A2B1F3A0319DB29033A03191F
:10095800EB28013A03196329073A03194F29013A89
:100968000319B72A033A0319392B0C3A0319C72973
:10097800013A03198B29073A0319672A013A03191F
:10098800482B033A0319572B7F3A0319B12B033A23
:1009980003199F29013A03197729073A0319EF29FF
:1009A800013A0319DF2A033A0319662B0F3A031990
:1009B800C02B033A0319752B013A0319B329073AD7
:1009C8000319FC2B013A0319032A033A0319CF2B05
:1009D8001C3A03190B2C063A0319932B013A0319F5
:1009E800DE2B0F3A03191F2C013A0319842B063A00
:1009F8000319A22B3B3A0319242C0D3A03193D2C59
:100A08001A3A0319292C033A0319472C063A0319F1
:100A1800512C013A0319332C033A03195B2C602C2F
:100A28002E080319182D192D1E2D35088E002200A9
:100A38000D130D1720003008031D232D242D2A2DFA
:100A480033080319282D292D2A2DB3013008031D39
:100A58002E2D2F2D352D34080319332D342D352DFA
:100A6800B401AB018B173A2880311328562D20008A
:100A78000D1A3F2D402D3B2D0B3077020318452DC5
:100A8800462D522D7708203E8600870100308D1AAA
:100A9800013081000130F0007008F7070D1E552D58
:100AA800562D522D0B307702031C5B2D5C2D3B2DF0
:100AB800F7012000AB01AB0A080022008C01C0300E
:100AC8008D008E013F3021008C0030308D008E016A
:100AD80023008E018D0117308C0024008D018C01BC
:100AE8002100951722009D012700161215161412D1
:100AF800B530F1000530F2008531AC2585318B1514
:100B080008007508760403198A2D8B2D902D760818
:100B18008A0075080A0085312700161208008531F9
:100B2800612585318531A62585318531B125853108
:100B380008002700161EA12DA22DA52D853185257B
:100B4800853108007A3021009900220096010800BA
:100B58007208F6007108F5000800163021009700A9
:040B68000800080079
:020000040001F9
:08000000FF3FFF3FFF3FFF3F00
:04000E00E43FFF3F8D
:00000001FF
